:020000040800F2
:1000000000280020B10C0008550C00085B0C00080B
:10001000610C0008670C00086D0C0008000000006F
:10002000000000000000000000000000730C000849
:100030007F0C0008000000008B0C0008970C0008E3
:10004000F90C0008F90C0008F90C0008F90C00087C
:10005000F90C0008F90C0008F90C0008F90C00086C
:10006000F90C0008F90C0008F90C0008F90C00085C
:10007000F90C0008F90C0008F90C0008F90C00084C
:10008000F90C0008F90C0008F90C0008F90C00083C
:10009000F90C0008F90C0008F90C0008F90C00082C
:1000A000F90C0008F90C0008F90C0008F90C00081C
:1000B000F90C0008F90C000800000000F90C000819
:1000C000F90C00080000000000000000F90C000816
:1000D00000000000F90C0008F90C00080000000006
:1000E000F90C0008F90C0008F90C000800000000E9
:1000F0000000000000000000000000000000000000
:0C01000000000000000000005FF808F1A3
:10010C0010B5054C237833B9044B13B10448AFF345
:10011C0000800123237010BD0C00002000000000A3
:10012C00041B000808B5034B1BB103490348AFF38C
:10013C00008008BD0000000010000020041B000817
:10014C0080B582B000AF78607B68092B00F28081AB
:10015C0001A252F823F000BF8D010008D501000860
:10016C001D02000865020008AD020008F502000837
:10017C003D03000885030008CD03000815040008A2
:10018C0000220121C64801F097F800220221C44840
:10019C0001F092F800220421C14801F08DF80022F0
:1001AC000821BF4801F088F800221021BC4801F05A
:1001BC0083F800222021BA4801F07EF80122402168
:1001CC00B74801F079F867E101220121B44801F048
:1001DC0073F800220221B24801F06EF800220421CB
:1001EC00AF4801F069F801220821AD4801F064F82C
:1001FC0001221021AA4801F05FF801222021A84811
:10020C0001F05AF801224021A54801F055F843E1CC
:10021C0000220121A24801F04FF800220221A0483F
:10022C0001F04AF8012204219D4801F045F8002212
:10023C0008219B4801F040F800221021984801F059
:10024C003BF801222021964801F036F8002240218B
:10025C00934801F031F81FE100220121904801F090
:10026C002BF8002202218E4801F026F800220421EE
:10027C008B4801F021F800220821894801F01CF874
:10028C0001221021864801F017F801222021844810
:10029C0001F012F800224021814801F00DF8FBE03A
:1002AC00012201217E4801F007F8002202217C483E
:1002BC0001F002F800220421794800F0FDFF012230
:1002CC000821774800F0F8FF01221021744800F053
:1002DC00F3FF00222021724800F0EEFF00224021A3
:1002EC006F4800F0E9FFD7E0002201216C4800F0D4
:1002FC00E3FF012202216A4800F0DEFF0022042104
:10030C00674800F0D9FF00220821654800F0D4FFAF
:10031C0001221021624800F0CFFF0022202160480A
:10032C0000F0CAFF002240215D4800F0C5FFB3E099
:10033C00002201215A4800F0BFFF01220221584837
:10034C0000F0BAFF00220421554800F0B5FF00224E
:10035C000821534800F0B0FF00221021504800F053
:10036C00ABFF002220214E4800F0A6FF00224021C6
:10037C004B4800F0A1FF8FE000220121484800F01B
:10038C009BFF00220221464800F096FF0022042128
:10039C00434800F091FF01220821414800F08CFFF6
:1003AC00012210213E4800F087FF012220213C4809
:1003BC0000F082FF01224021394800F07DFF6BE004
:1003CC0000220121364800F077FF00220221344838
:1003DC0000F072FF00220421314800F06DFF002272
:1003EC0008212F4800F068FF002210212C4800F053
:1003FC0063FF002220212A4800F05EFF00224021EA
:10040C00274800F059FF47E000220121244800F062
:10041C0053FF00220221224800F04EFF002204214B
:10042C001F4800F049FF002208211D4800F044FF3E
:10043C00012210211A4800F03FFF00222021184809
:10044C0000F03AFF00224021154800F035FF23E070
:10045C0001220121124800F02FFF01220221104835
:10046C0000F02AFF012204210D4800F025FF012293
:10047C0008210B4800F020FF01221021084800F051
:10048C001BFF01222021064800F016FF012240210B
:10049C00034800F011FF00BF00BF0837BD4680BD08
:1004AC00000C014080B582B000AF78607B68092BEE
:1004BC0000F2BE8101A252F823F000BFF104000843
:1004CC004505000899050008ED05000841060008DF
:1004DC0095060008E90600083D070008910700088A
:1004EC00E507000800228021D04800F0E5FE00223C
:1004FC004FF48071CD4800F0DFFE00224FF4007104
:10050C00CA4800F0D9FE00224FF48061C74800F0C1
:10051C00D3FE00224FF40061C44800F0CDFE00224F
:10052C004FF48051C14800F0C7FE01224FF4005136
:10053C00BE4800F0C1FEA5E101228021BB4800F0BD
:10054C00BBFE00224FF48071B84800F0B5FE0022CB
:10055C004FF40071B54800F0AFFE01224FF48061FA
:10056C00B24800F0A9FE01224FF40061AF4800F040
:10057C00A3FE01224FF48051AC4800F09DFE0122F5
:10058C004FF40051A94800F097FE7BE10022802136
:10059C00A64800F091FE00224FF48071A34800F0B1
:1005AC008BFE01224FF40071A04800F085FE002262
:1005BC004FF480619D4800F07FFE00224FF40061F3
:1005CC009A4800F079FE01224FF48051974800F0D0
:1005DC0073FE00224FF40051944800F06DFE51E17F
:1005EC0000228021914800F067FE00224FF48071B8
:1005FC008E4800F061FE00224FF400718B4800F031
:10060C005BFE00224FF48061884800F055FE012209
:10061C004FF40061854800F04FFE01224FF48051E9
:10062C00824800F049FE00224FF400517F4800F050
:10063C0043FE27E1012280217C4800F03DFE002290
:10064C004FF48071794800F037FE00224FF40071AE
:10065C00764800F031FE01224FF48061734800F0BF
:10066C002BFE01224FF40061704800F025FE0022A1
:10067C004FF480516D4800F01FFE00224FF40051E2
:10068C006A4800F019FEFDE000228021674800F066
:10069C0013FE01224FF48071644800F00DFE00221D
:1006AC004FF40071614800F007FE00224FF48061A6
:1006BC005E4800F001FE01224FF400615B4800F03F
:1006CC00FBFD00224FF48051584800F0F5FD00224C
:1006DC004FF40051554800F0EFFDD3E0002280218B
:1006EC00524800F0E9FD01224FF480714F4800F0B0
:1006FC00E3FD00224FF400714C4800F0DDFD0022B8
:10070C004FF48061494800F0D7FD00224FF400619E
:10071C00464800F0D1FD00224FF48051434800F0D0
:10072C00CBFD00224FF40051404800F0C5FDA9E07C
:10073C00002280213D4800F0BFFD00224FF4807163
:10074C003A4800F0B9FD00224FF40071374800F030
:10075C00B3FD01224FF48061344800F0ADFD01225D
:10076C004FF40061314800F0A7FD01224FF4805195
:10077C002E4800F0A1FD01224FF400512B4800F04F
:10078C009BFD7FE000228021284800F095FD00228F
:10079C004FF48071254800F08FFD00224FF400715A
:1007AC00224800F089FD00224FF480611F4800F0C0
:1007BC0083FD00224FF400611C4800F07DFD0022F7
:1007CC004FF48051194800F077FD00224FF400518E
:1007DC00164800F071FD55E000228021134800F00E
:1007EC006BFD00224FF48071104800F065FD002273
:1007FC004FF400710D4800F05FFD00224FF4806152
:10080C000A4800F059FD01224FF40061074800F03E
:10081C0053FD00224FF48051044800F04DFD00229E
:10082C004FF40051014800F047FD2BE0000C014053
:10083C0001228021154800F03FFD01224FF4807108
:10084C00124800F039FD01224FF400710F4800F0FE
:10085C0033FD01224FF480610C4800F02DFD012284
:10086C004FF40061094800F027FD01224FF480513C
:10087C00064800F021FD01224FF40051034800F01E
:10088C001BFD00BF00BF0837BD4680BD000C0140FA
:10089C0080B584B000AF00F02BFA00F00BF900F03B
:1008AC0045F90323FB600223BB6005237B60012217
:1008BC0008217F4800F000FD012210217C4800F047
:1008CC00FBFC01224FF40071794800F0F5FC012289
:1008DC004FF48061764800F0EFFC0FE07868FFF78A
:1008EC002FFCF868FFF7DEFD7B68013B7B60FB6843
:1008FC00013BFB604FF47A7000F05CFA7B68022BD2
:10090C0002DDFB68002BE9DC0323FB6000220821DD
:10091C00674800F0D1FC00224FF40071644800F0ED
:10092C00CBFC01220421624800F0C6FC01224FF4EA
:10093C0080715F4800F0C0FC0FE07868FFF700FCA6
:10094C00B868FFF7AFFD7B68013B7B60BB68013B80
:10095C00BB604FF47A7000F02DFA7B68002B02DD3F
:10096C00BB68002BE9DC0223BB6005237B60002203
:10097C0010214F4800F0A0FC00224FF480614C483D
:10098C0000F09AFC01224021494800F095FC01221C
:10099C004FF48051464800F08FFC0022042144485B
:1009AC0000F08AFC00224FF48071414800F084FC76
:1009BC00012202213E4800F07FFC012280213C48AC
:1009CC0000F07AFC0FE07868FFF76CFDF868FFF731
:1009DC00B7FB7B68013B7B60FB68013BFB604FF422
:1009EC007A7000F0E7F97B68022B02DDFB68002BC4
:1009FC00E9DC0323FB60002240212D4800F05CFC65
:100A0C0000224FF480512A4800F056FC01224FF48A
:100A1C000061274800F050FC01222021244800F0FE
:100A2C004BFC0FE07868FFF73DFDB868FFF788FBDB
:100A3C007B68013B7B60BB68013BBB604FF47A7009
:100A4C0000F0B8F97B68002B02DDBB68002BE9DCF9
:100A5C000223BB6005237B6000224FF40061144825
:100A6C0000F02AFC00222021114800F025FC012274
:100A7C004FF480610E4800F01FFC012210210C483D
:100A8C0000F01AFC01220821094800F015FC012293
:100A9C004FF40071064800F00FFC002202210448BC
:100AAC0000F00AFC00228021014800F005FCFEE663
:100ABC000008014080B590B000AF07F11803282260
:100ACC000021184601F010F83B1D00221A605A60F4
:100ADC009A60DA601A610223BB610123BB621023A6
:100AEC00FB6200237B6307F11803184600F0FCFB44
:100AFC000346002B01D000F06FF80F237B6000231E
:100B0C00BB600023FB6000233B6100237B613B1D2A
:100B1C000021184600F068FE0346002B01D000F0BF
:100B2C005BF800BF4037BD4680BD000080B586B085
:100B3C0000AF07F1080300221A605A609A60DA606D
:100B4C00224B9B69214A43F0040393611F4B9B6921
:100B5C0003F004037B607B681C4B9B691B4A43F0CE
:100B6C0008039361194B9B6903F008033B603B68D6
:100B7C00002241F6FE71164800F09EFB002243F65F
:100B8C00FF71144800F098FB41F6FE73BB60012323
:100B9C00FB6000233B6102237B6107F108031946CC
:100BAC000B4800F00FFA43F6FF73BB600123FB60A8
:100BBC0000233B6102237B6107F1080319460548BA
:100BCC0000F000FA00BF1837BD4680BD001002408F
:100BDC0000080140000C014080B400AF72B600BFA9
:100BEC00FEE7000080B485B000AF154B9B69144A3A
:100BFC0043F001039361124B9B6903F00103BB604B
:100C0C00BB680F4BDB690E4A43F08053D3610C4B2E
:100C1C00DB6903F080537B607B680A4B5B68FB608D
:100C2C00FB6823F0E063FB60FB6843F08063FB60D0
:100C3C00044AFB68536000BF1437BD4680BC704744
:100C4C00001002400000014080B400AFFEE780B409
:100C5C0000AFFEE780B400AFFEE780B400AFFEE764
:100C6C0080B400AFFEE780B400AF00BFBD4680BCCF
:100C7C00704780B400AF00BFBD4680BC704780B4E5
:100C8C0000AF00BFBD4680BC704780B500AF00F020
:100C9C0075F800BF80BD80B400AF00BFBD4680BCFE
:100CAC0070470000FFF7F7FF0B480C490C4A002374
:100CBC0002E0D458C4500433C4188C42F9D3094A06
:100CCC00094C002301E013600432A242FBD300F074
:100CDC00E7FEFFF7DDFD7047000000200C00002050
:100CEC00481B00080C0000202C000020FEE7000030
:100CFC0080B500AF084B1B68074A43F01003136024
:100D0C00032000F02BF90F2000F008F8FFF76AFF22
:100D1C000023184680BD00BF0020024080B582B081
:100D2C0000AF7860124B1A68124B1B7819464FF4BF
:100D3C007A73B3FBF1F3B2FBF3F3184600F035F919
:100D4C000346002B01D001230EE07B680F2B0AD841
:100D5C00002279684FF0FF3000F00BF9064A7B68EF
:100D6C001360002300E0012318460837BD4680BD00
:100D7C0000000020080000200400002080B400AF18
:100D8C00054B1B781A46054B1B681344034A13602A
:100D9C0000BFBD4680BC7047080000202800002022
:100DAC0080B400AF024B1B681846BD4680BC704730
:100DBC002800002080B584B000AF7860FFF7F0FF0A
:100DCC00B8607B68FB60FB68B3F1FF3F05D00A4B52
:100DDC001B781A46FB681344FB6000BFFFF7E0FF6B
:100DEC000246BB68D31AFA689A42F7D800BF00BF14
:100DFC001037BD4680BD00BF0800002080B485B010
:100E0C0000AF78607B6803F00703FB600C4BDB687A
:100E1C00BB60BA684FF6FF031340BB60FB681A0255
:100E2C00BB68134343F0BF6343F40033BB60044A15
:100E3C00BB68D36000BF1437BD4680BC704700BF91
:100E4C0000ED00E080B400AF044BDB681B0A03F03C
:100E5C0007031846BD4680BC704700BF00ED00E09C
:100E6C0080B483B000AF03463960FB7197F907304B
:100E7C00002B0ADB3B68DAB20C4997F907301201F8
:100E8C00D2B20B4483F800230AE03B68DAB208497B
:100E9C00FB7903F00F03043B1201D2B20B441A7618
:100EAC0000BF0C37BD4680BC704700BF00E100E0BE
:100EBC0000ED00E080B489B000AFF860B9607A60F2
:100ECC00FB6803F00703FB61FB69C3F10703042B09
:100EDC0028BF0423BB61FB690433062B02D9FB69D1
:100EEC00033B00E000237B614FF0FF32BB6902FA49
:100EFC0003F3DA43BB681A407B699A404FF0FF3129
:100F0C007B6901FA03F3D9437B680B401343184602
:100F1C002437BD4680BC704780B582B000AF786086
:100F2C007B68013BB3F1807F01D301230FE00A4AB8
:100F3C007B68013B53600F214FF0FF30FFF790FFB0
:100F4C00054B00229A60044B07221A6000231846B6
:100F5C000837BD4680BD00BF10E000E080B582B010
:100F6C0000AF78607868FFF749FF00BF0837BD46CF
:100F7C0080BD80B586B000AF0346B9607A60FB7364
:100F8C0000237B61FFF75EFF78617A68B968786946
:100F9C00FFF790FF024697F90F3011461846FFF7FE
:100FAC005FFF00BF1837BD4680BD80B582B000AF73
:100FBC0078607868FFF7B0FF034618460837BD46DF
:100FCC0080BD000080B48BB000AF78603960002326
:100FDC007B6200233B6248E101227B6A02FA03F345
:100FEC00FB613B681B68FA691340BB61BA69FB691A
:100FFC009A4240F037813B685B68A34A93425ED0CB
:10100C00A14A934275D8A14A934258D09F4A934221
:10101C006FD89F4A934252D09D4A934269D89D4AB9
:10102C0093424CD09B4A934263D89B4A934246D0FE
:10103C00994A93425DD8122B2AD8122B59D801A267
:10104C0052F823F0CB100008A5100008B7100008C8
:10105C00F9100008FF100008FF100008FF1000082E
:10106C00FF100008FF100008FF100008FF10000818
:10107C00FF100008FF100008FF100008FF10000808
:10108C00FF100008FF100008AD100008C110000888
:10109C00824A934213D02CE03B68DB683B6229E028
:1010AC003B68DB6804333B6224E03B68DB68083355
:1010BC003B621FE03B68DB680C333B621AE03B6829
:1010CC009B68002B02D104233B6213E03B689B68B6
:1010DC00012B05D108233B627B68FA691A6109E090
:1010EC0008233B627B68FA695A6103E000233B6288
:1010FC0000E000BFBB69FF2B01D87B6801E07B6877
:10110C0004337B61BB69FF2B02D87B6A9B0002E036
:10111C007B6A083B9B003B617B691A680F213B692A
:10112C0001FA03F3DB431A40396A3B6901FA03F312
:10113C001A437B691A603B685B6803F08053002B91
:10114C0000F09080564B9B69554A43F00103936124
:10115C00534B9B6903F00103BB60BB68514A7B6A2C
:10116C009B08023352F82330FB607B6A03F00303C5
:10117C009B000F2202FA03F3DB43FA681340FB6077
:10118C007B68494A93420DD07B68484A934207D00A
:10119C007B68474A934201D1022304E0032302E017
:1011AC00012300E000237A6A02F0030292009340CC
:1011BC00FA681343FB603B497B6A9B080233FA686D
:1011CC0041F823203B685B6803F48013002B06D0A6
:1011DC00384B9A683749BB6913438B6006E0354B33
:1011EC009A68BB69DB43334913408B603B685B688F
:1011FC0003F40013002B06D02E4BDA682D49BB6983
:10120C001343CB6006E02B4BDA68BB69DB432949FF
:10121C001340CB603B685B6803F40033002B06D0B3
:10122C00244B5A682349BB6913434B6006E0214B9E
:10123C005A68BB69DB431F4913404B603B685B68D2
:10124C0003F48033002B06D01A4B1A681949BB697A
:10125C0013430B6006E0174B1A68BB69DB43154957
:10126C0013400B607B6A01337B623B681A687B6AB4
:10127C0022FA03F3002B7FF4AFAE00BF00BF2C3774
:10128C00BD4680BC704700BF00003210000031101A
:10129C00000022100000211000001210000011109C
:1012AC00001002400000014000080140000C014009
:1012BC00001001400004014080B483B000AF78609E
:1012CC000B467B8013467B707B78002B03D07A888F
:1012DC007B681A6103E07B881A047B681A6100BF83
:1012EC000C37BD4680BC704780B586B000AF7860C7
:1012FC007B68002B01D101236CE27B681B6803F037
:10130C000103002B00F08780924B5B6803F00C0309
:10131C00042B0CD08F4B5B6803F00C03082B12D101
:10132C008C4B5B6803F48033B3F5803F0BD1894B56
:10133C001B6803F40033002B6CD07B685B68002BBC
:10134C0068D1012346E27B685B68B3F5803F06D128
:10135C00804B1B687F4A43F4803313602EE07B681C
:10136C005B68002B0CD17B4B1B687A4A23F48033CF
:10137C001360784B1B68774A23F4802313601DE0BD
:10138C007B685B68B3F5A02F0CD1724B1B68714A5C
:10139C0043F4802313606F4B1B686E4A43F4803315
:1013AC0013600BE06B4B1B686A4A23F480331360A9
:1013BC00684B1B68674A23F4802313607B685B6867
:1013CC00002B13D0FFF7ECFC386108E0FFF7E8FCCA
:1013DC0002463B69D31A642B01D90323FAE15D4B16
:1013EC001B6803F40033002BF0D014E0FFF7D8FC9B
:1013FC00386108E0FFF7D4FC02463B69D31A642B32
:10140C0001D90323E6E1534B1B6803F40033002B93
:10141C00F0D100E000BF7B681B6803F00203002BD7
:10142C0063D04C4B5B6803F00C03002B0BD0494B87
:10143C005B6803F00C03082B1CD1464B5B6803F470
:10144C008033002B16D1434B1B6803F00203002B97
:10145C0005D07B681B69012B01D00123BAE13D4B00
:10146C001B6823F0F8027B685B69DB003949134386
:10147C000B603AE07B681B69002B20D0364B0122B5
:10148C001A60FFF78DFC386108E0FFF789FC024613
:10149C003B69D31A022B01D903239BE12D4B1B680B
:1014AC0003F00203002BF0D02A4B1B6823F0F80248
:1014BC007B685B69DB00274913430B6015E0264B07
:1014CC0000221A60FFF76CFC386108E0FFF768FC3B
:1014DC0002463B69D31A022B01D903237AE11D4B37
:1014EC001B6803F00203002BF0D17B681B6803F030
:1014FC000803002B3AD07B689B69002B19D0174B43
:10150C0001221A60FFF74CFC386108E0FFF748FC39
:10151C0002463B69D31A022B01D903235AE10D4B26
:10152C005B6A03F00203002BF0D0012000F09AFA62
:10153C001CE00A4B00221A60FFF732FC38610FE006
:10154C00FFF72EFC02463B69D31A022B08D9032362
:10155C0040E100BF001002400000424280044242C1
:10156C009E4B5B6A03F00203002BE9D17B681B687E
:10157C0003F00403002B00F0A6800023FB75974BAF
:10158C00DB6903F08053002B0DD1944BDB69934A3C
:10159C0043F08053D361914BDB6903F08053BB6004
:1015AC00BB680123FB758E4B1B6803F48073002B07
:1015BC0018D18B4B1B688A4A43F480731360FFF776
:1015CC00EFFB386108E0FFF7EBFB02463B69D31AEF
:1015DC00642B01D90323FDE0814B1B6803F480735A
:1015EC00002BF0D07B68DB68012B06D17B4B1B6A90
:1015FC007A4A43F0010313622DE07B68DB68002B11
:10160C000CD1764B1B6A754A23F001031362734BA2
:10161C001B6A724A23F0040313621CE07B68DB68CC
:10162C00052B0CD16D4B1B6A6C4A43F004031362FF
:10163C006A4B1B6A694A43F0010313620BE0674B68
:10164C001B6A664A23F001031362644B1B6A634AEC
:10165C0023F0040313627B68DB68002B15D0FFF7C3
:10166C009FFB38610AE0FFF79BFB02463B69D31AEC
:10167C0041F28832934201D90323ABE0574B1B6AEA
:10168C0003F00203002BEED014E0FFF789FB386166
:10169C000AE0FFF785FB02463B69D31A41F2883218
:1016AC00934201D9032395E04C4B1B6A03F00203D0
:1016BC00002BEED1FB7D012B05D1484BDB69474A52
:1016CC0023F08053D3617B68DB69002B00F08180B1
:1016DC00424B5B6803F00C03082B61D07B68DB6921
:1016EC00022B46D13F4B00221A60FFF759FB3861A1
:1016FC0008E0FFF755FB02463B69D31A022B01D9D0
:10170C00032367E0354B1B6803F00073002BF0D10B
:10171C007B681B6AB3F5803F08D1304B5B6823F4C0
:10172C0000327B689B682D4913434B602B4B5B68E5
:10173C0023F474127B68196A7B685B6A0B43274934
:10174C0013434B60274B01221A60FFF729FB3861CA
:10175C0008E0FFF725FB02463B69D31A022B01D99F
:10176C00032337E01D4B1B6803F00073002BF0D0F4
:10177C002FE01C4B00221A60FFF712FB386108E0C7
:10178C00FFF70EFB02463B69D31A022B01D9032348
:10179C0020E0124B1B6803F00073002BF0D118E013
:1017AC007B68DB69012B01D1012313E00B4B5B68D8
:1017BC00FB60FB6803F480327B681B6A9A4206D19B
:1017CC00FB6803F470127B685B6A9A4201D00123B8
:1017DC0000E0002318461837BD4680BD00100240BB
:1017EC00007000406000424280B584B000AF786069
:1017FC0039607B68002B01D10123D0E06A4B1B6858
:10180C0003F007033A689A4210D9674B1B6823F020
:10181C00070265493B6813430B60634B1B6803F07D
:10182C0007033A689A4201D00123B8E07B681B6831
:10183C0003F00203002B20D07B681B6803F0040329
:10184C00002B05D0594B5B68584A43F4E063536056
:10185C007B681B6803F00803002B05D0534B5B68B7
:10186C00524A43F460535360504B5B6823F0F002D0
:10187C007B689B684D4913434B607B681B6803F086
:10188C000103002B40D07B685B68012B07D1474BD1
:10189C001B6803F40033002B15D101237FE07B6818
:1018AC005B68022B07D1414B1B6803F00073002BC4
:1018BC0009D1012373E03D4B1B6803F00203002B9D
:1018CC0001D101236BE0394B5B6823F003027B6889
:1018DC005B68364913434B60FFF762FAF8600AE025
:1018EC00FFF75EFA0246FB68D31A41F28832934244
:1018FC0001D9032353E02D4B5B6803F00C027B688A
:10190C005B689B009A42EBD1274B1B6803F00703E3
:10191C003A689A4210D2244B1B6823F007022249E2
:10192C003B6813430B60204B1B6803F007033A68BA
:10193C009A4201D0012332E07B681B6803F0040358
:10194C00002B08D0194B5B6823F4E0627B68DB68E2
:10195C00164913434B607B681B6803F00803002B8C
:10196C0009D0124B5B6823F460527B681B69DB0067
:10197C000E4913434B6000F021F802460B4B5B6899
:10198C001B0903F00F030A49CB5C22FA03F3094A43
:10199C001360094B1B681846FFF7C0F90023184663
:1019AC001037BD4680BD00BF002002400010024031
:1019BC001C1B0008000000200400002080B487B02D
:1019CC0000AF0023FB600023BB6000237B6100237E
:1019DC007B6000233B611E4B5B68FB60FB6803F084
:1019EC000C03042B02D0082B03D027E0194B3B61CE
:1019FC0027E0FB689B0C03F00F03174AD35C7B605A
:101A0C00FB6803F48033002B10D0114B5B685B0C2C
:101A1C0003F00103114AD35CBB607B680D4A02FBE7
:101A2C0003F2BB68B2FBF3F37B6104E07B680C4A06
:101A3C0002FB03F37B617B693B6102E0054B3B617D
:101A4C0000BF3B6918461C37BD4680BC704700BFC1
:101A5C000010024000127A002C1B00083C1B0008EE
:101A6C0000093D0080B485B000AF78600A4B1B685C
:101A7C000A4AA2FB03235B0A7A6802FB03F3FB60AE
:101A8C0000BFFB685A1EFA60002BF9D100BF00BFE3
:101A9C001437BD4680BC704700000020D34D621047
:101AAC0070B500260C4D0D4C641BA410A64209D138
:101ABC0000F022F800260A4D0A4C641BA410A64222
:101ACC0005D170BD55F8043B98470136EEE755F843
:101ADC00043B98470136F2E7401B0008401B000806
:101AEC00401B0008441B000803460244934200D1EB
:101AFC00704703F8011BF9E7F8B500BFF8BC08BC48
:101B0C009E467047F8B500BFF8BC08BC9E467047AF
:101B1C000000000000000000010203040607080991
:101B2C0002030405060708090A0B0C0D0E0F101012
:041B3C0001020000A2
:041B40003101000867
:041B44000D01000887
:0C1B480000127A001000000001000000F4
:0400000508000CB132
:00000001FF
